:03000000021F5F7D
:0C1F5F00787FE4F6D8FD75816C021FA6A7
:102268003F065B4F666D7D077F6F777C395E7971BE
:04227800760040FFAD
:0F22A100044200000000014B00014F00015000FB
:0D001600E4F5C7F5C5F5C675C380F5C42235
:1000260075C78075F52875C5018FC4EEFF8FC3753A
:0B003600C65A75C6A500AFC212001626
:01004100229C
:1021ED0075C78075F52875C5028FC4EEFF8FC38D39
:0B21FD00C275C65A75C6A50002001688
:1022080075C78075F52875C5038FC4EEFF8FC37534
:09221800C65A75C6A500020016A5
:102071007F007E04122208AD4B7F011221EDE52184
:10208100FD7F021221EDAD227F031221EDE526FD38
:102091007404FF1221EDAD277F051221EDE528FD26
:1020A1007F061221EDAD297F071221EDAD2A7F08B0
:1020B1001221EDAD257F091221EDE52BFD7F0A12DD
:1020C10021EDAD2C7F0B1221EDAD4F7F0D1221EDD6
:0720D100AD2D7F3C0221ED63
:101EC4007F017E041200268F4B7F02120026AD078D
:101ED4007F03120026AC07EDFEEC7C002400F52203
:101EE400EC3EF5217404FFFE120026AD077F0512B7
:101EF4000026AC07EDFEEC7C002400F527EC3EF553
:101F0400267F067E04120026AD077F07120026AC4A
:101F140007EDFEEC7C002400F529EC3EF5287F0853
:101F24007E041200268F2A7F091200268F257F0A3D
:101F3400120026AD077F0B120026AC07EDFEAD04A0
:101F44007C00E42DF52CEC3EF52B7F0D7E04120075
:0A1F5400268F4F7F3C1200268F2DD0
:011F5E002260
:10217A00121EC4E52D64066026754B01752D067581
:10218A0021037522E87526277527107528017529F8
:10219A002C752A0A752528E4F52BF52C12207122B4
:1021CF00759850438E40538EFE53890F758BE07573
:0E21DF008DFEC2ABD28ED2ACD2AFE4F5A222FE
:101C35007F41121DF10F121DF1AE54AF557C037D8E
:101C4500E8121BD2EF2430FF121DF1AE54AF557CC4
:101C5500037DE8121BD27E007F64CFCDCFCECCCEE4
:101C6500121BD2EF2430FF121DF1AE54AF557C008C
:101C75007D64121BD27E007F0ACFCDCFCECCCE1293
:101C85001BD2EF2430FF121DF1AE54AF557C007D01
:101C95000A121BD2ED2430FF121DF17F45121DF1F2
:101CA500AE52AF537C037DE8121BD2EF2430FF12F6
:101CB5001DF1AE52AF537C037DE8121BD27E007F2F
:101CC50064CFCDCFCECCCE121BD2EF2430FF121D68
:101CD500F1AE52AF537C007D64121BD27E007F0AA9
:101CE500CFCDCFCECCCE121BD2EF2430FF121DF1BB
:101CF500AE52AF537C007D0A121BD2ED2430FF1289
:101D05001DF17F43121DF1C374FF9553FF740F95A9
:101D150052FE7C037DE8121BD2EF2430FF121DF129
:101D2500C374FF9553FF740F9552FE7C037DE81233
:101D35001BD27E007F64CFCDCFCECCCE121BD2EF8F
:101D45002430FF121DF1C374FF9553FF740F955294
:101D5500FE7C007D64121BD27E007F0ACFCDCFCEE4
:101D6500CCCE121BD2EF2430FF121DF1C374FF95A8
:101D750053FF740F9552FE7C007D0A121BD2ED2491
:101D850030FF121DF17F56121DF1C374FF9555FFEB
:101D9500740F9554FE7C037DE8121BD2EF2430FFAF
:101DA500121DF1C374FF9555FF740F9554FE7C0306
:101DB5007DE8121BD27E007F64CFCDCFCECCCE1274
:101DC5001BD2EF2430FF121DF1C374FF9555FF742C
:101DD5000F9554FE7C007D64121BD27E007F0ACFD6
:0C1DE500CDCFCECCCE121BD2EF2430FFAD
:081DF1008F993099FDC299227F
:10227C00121BA7FF600C121DF1740129F9E43AFA44
:03228C0080EE22BF
:10228F00759A1075D7E075D6FE438E1475AF01D2CF
:02229F00AF226C
:0F223A007E00CFCDCFCECCCE121BD2EF2430FF03
:082249002003FDD2038F9B224C
:1021AA008B088A09890AAB08AA09A90A121BA7601F
:1021BA0013050AE50A7002050914F9121BA7FF1292
:0521CA00224980E22221
:10222100438E805389F0758A9A758CA9C28DD28CA0
:09223100D28CD2A9D2B9D2AF229D
:10004600E4F594F59375920FF5917596FFF595F590
:10005600B2F5B1F5B4F5B3F5CAF5C9C291C2B51298
:10006600217A1221CF12228F1222217F321222519F
:10007600309505D201E4F54F20B245E4F54DF54E35
:10008600D20230B30BC3E54E9402E54D940040F224
:10009600E4F54DF54E20B30BC3E54E9402E54D94C1
:1000A6000040F2C3E52294E8E521940350080522B6
:1000B600E52270020521754F01D2017F01122251FE
:1000C60020B345E4F54DF54ED20230B20BC3E54EF2
:1000D6009402E54D940040F2E4F54DF54E20B20B46
:1000E600C3E54E9402E54D940040F2D3E522940018
:1000F600E52194004008E522152270021521754F6E
:1001060001D2017F01122251E54F64016003020111
:10011600C7C3E52294E8E5219403401BAE21AF2234
:100126007C037DE8121BD274682FF58274223EF59B
:1001360083E493F5428003E4F542C3E5229464E543
:100146002194004028AE21AF227C037DE8121BD209
:100156007E007F64CFCDCFCECCCE121BD274682F5B
:10016600F58274223EF583E493F5438003E4F54378
:10017600C3E522940AE52194004028AE21AF227CF3
:10018600007D64121BD27E007F0ACFCDCFCECCCEAF
:10019600121BD274682FF58274223EF583E493F520
:1001A600448003E4F544AE21AF227C007D0A121B95
:1001B600D274682DF58274223CF583E493F545806C
:1001C60012E4F54290226893F543902277E493F582
:1001D60044F5452001030203B7D291AC2AE4121A72
:1001E600F2A804A905AA06AB077F3D7E0A7D837C9B
:1001F60040121A4B8F5A8E598D588C57AC26AD2704
:10020600E4121AEDAB5AAA59A958A8571219421264
:100216001B268E528F53AC2BAD2CE4121AEDAB5A23
:10022600AA59A958A857121942121B268E5B8F5C31
:10023600C3E553955CFDE552955BFCE4121AEDE4CB
:10024600FBFA797A7844121A4B8F5A8E598D588C4C
:1002560057E52245217006F552F553803FAC21AD96
:1002660022E4121AEDAB5AAA59A958A857121942F4
:10027600C004C005C006C007AC5BAD5CE4121AED55
:10028600D003D002D001D000121851E4FBFA797FD6
:100296007843121851121B268E528F53AC28AD2963
:1002A600E4121AED7B667A6679DA78401219421200
:1002B6001B268E548F55D3E55394FFE552940F4079
:1002C6000675520F7553FFD3E55594FFE554940F09
:1002D600400675540F7555FFC201121C35C374FFD5
:1002E6009555FF740F9554FE7C007D0A121BD2EDC6
:1002F6002430FF121DF17F42121DF1E54FB40104B7
:100306007F3180027F30121DF1E54FB401047F304A
:1003160080027F31121DF17F23121DF17F0A122206
:1003260051121C35C374FF9555FF740F9554FE7C0E
:10033600007D0A121BD2ED2430FF121DF17F4212FE
:100346001DF1E54FB401047F3180027F30121DF1AB
:10035600E54FB401047F3080027F31121DF17F2307
:10036600121DF17F41122249AE21AF227C037DE8A6
:10037600122242AE21AF227C037DE8121BD27F649B
:1003860012223AAE21AF227C007D64121BD27F0A74
:1003960012223AAE21AF227C007D0A121BD2ED2436
:1003A60030FF1222497F231222497F01122251C2B5
:1003B600913095030211AA30B40302182EC296D2C8
:1003C60002C2AAC2A8E4F54DF54E30B403020CEA07
:1003D600E54E139296C3E54E9405E54D940040EA2A
:1003E600E4F55190227293F542E4F543AE26AF2729
:1003F6007C277D10121BD274682FF58274223EF57D
:1004060083E493F544AE26AF277C277D10121BD2DA
:100416007E037FE8CFCDCFCECCCE121BD274682F11
:10042600F58274223EF583E493F5457549FEC2963E
:1004360020B40D2000057596FF80F5E4F59680F052
:100446007F0A122251E4F54DF54E20B234E4F54D03
:10045600F54E30B30BC3E54E9402E54D940040F2E1
:10046600E4F54DF54E20B30BC3E54E9402E54D94ED
:100476000040F2E551C39406500205517F01122255
:100486005120B334E4F54DF54E30B20BC3E54E942E
:1004960002E54D940040F2E4F54DF54E20B20BC353
:1004A600E54E9402E54D940040F2E551D3940040A8
:1004B6000215517F01122251E551B4070040030293
:1004C60006AE9004CFF82828730204E4020512024F
:1004D600056E0205890205D80206210206819022D0
:1004E60072E493F542E4F543AE26AF277C277D10F0
:1004F600121BD274682FF58274223EF583E493F5BD
:1005060044AE26AF277C277D10020607902273E4AF
:10051600934480F542AE26AF277C037DE8121BD2BA
:100526007E007F64CFCDCFCECCCE121BD274682F87
:10053600F58274223EF583E493F543AE26AF277C1D
:10054600007D64121BD27E007F0ACFCDCFCECCCEEB
:10055600121BD274682FF58274223EF583E493F55C
:1005660044AE26AF2702066D902274E493F542E46A
:10057600F543E52A75F00A8490226893F544E52A46
:100586000206A5902275E493F542AE28AF297C00B9
:100596007D64121BD274682FF58274223EF583E4C3
:1005A60093F543AE28AF297C007D64121BD27E00F2
:1005B6007F0ACFCDCFCECCCE121BD274682FF58258
:1005C60074223EF583E4934480F544AE28AF2902B5
:1005D600066D902276E493F542E4F543E525FB7A31
:1005E600007C277D10FF7E00121BD274682FF582D7
:1005F60074223EF583E493F5447C277D10AF037E99
:1006060000121BD27E037FE8CFCDCFCECCCE121BFD
:10061600D274682FF58274223E805B902277E49331
:100626004480F542AE2BAF2C7C007D64121BD27445
:10063600682FF58274223EF583E493F543AE2BAF23
:100646002C7C007D64121BD27E007F0ACFCDCFCEDC
:10065600CCCE121BD274682FF58274223EF583E449
:1006660093F544AE2BAF2C7C007D0A121BD2746826
:100676002DF58274223CF583E4802A902278E49357
:10068600F542E54B75F0648490226893F543E54B9B
:1006960075F06484E5F075F00A8493F544E54B75CE
:1006A600F00A84E5F093F54530B403020CCB7F6481
:1006B60012000630B403020CCB75493C20B40D2061
:1006C60000057596FF80F5E4F59680F07F0A122204
:1006D60051E4F54DF54EE551B407004003020C9286
:1006E6009006EDF82828730207020207E20208E3E3
:1006F600020973020A57020B13020BF7902272E4E7
:1007060093F542E4F543AE26AF277C277D10121BF6
:10071600D274682FF58274223EF583E493F544AED5
:1007260026AF277C277D10121BD27E037FE8CFCD14
:10073600CFCECCCE121BD274682FF58274223EF532
:1007460083E493F54520B24BE4F54DF54E30B30BFB
:10075600C3E54E9402E54D940040F2E4F54DF54EA6
:1007660020B30BC3E54E9402E54D940040F2AF2A48
:100776007E007C037DE8121BC0C3E5279FE5269E0D
:10078600500C74E82527F52774033526F5267F01D6
:1007960012225130B303020C92E4F54DF54E30B2FD
:1007A6000BC3E54E9402E54D940040F2E4F54DF599
:1007B6004E20B20BC3E54E9402E54D940040F2D3B1
:1007C600E52794E8E52694035003020C8D7418255A
:1007D60027F52774FC3526F526020C8D902273E446
:1007E600934480F542AE26AF277C037DE8121BD2E8
:1007F6007E007F64CFCDCFCECCCE121BD274682FB5
:10080600F58274223EF583E493F543AE26AF277C4A
:10081600007D64121BD27E007F0ACFCDCFCECCCE18
:10082600121BD274682FF58274223EF583E493F589
:1008360044AE26AF277C007D0A121BD274682DF5C4
:100846008274223CF583E493F54520B24AE4F54DE3
:10085600F54E30B30BC3E54E9402E54D940040F2DD
:10086600E4F54DF54E20B30BC3E54E9402E54D94E9
:100876000040F2AF2A7E007C037DE8121BC0C3E570
:10088600279FE5269E500B74022527F527E435267B
:10089600F5267F0112225130B303020C92E4F54D86
:1008A600F54E30B20BC3E54E9402E54D940040F28E
:1008B600E4F54DF54E20B20BC3E54E9402E54D949A
:1008C6000040F2C3E5279402E5269400400C74FE2E
:1008D6002527F52774FF3526F526020C8D90227400
:1008E600E493F542E4F543E52A75F00A849022681C
:1008F60093F544E52A75F00A84E5F093F54520B2B0
:1009060034E4F54DF54E30B30BC3E54E9402E54D98
:10091600940040F2E4F54DF54E20B30BC3E54E943A
:1009260002E54D940040F2E52AC394195002052AC7
:100936007F0112225130B303020C92E4F54DF54EBD
:1009460030B20BC3E54E9402E54D940040F2E4F557
:100956004DF54E20B20BC3E54E9402E54D94004092
:10096600F2E52AD394024002152A020C8D902275D4
:10097600E493F542AE28AF297C007D64121BD27445
:10098600682FF58274223EF583E493F543AE28AFD3
:10099600297C007D64121BD27E007F0ACFCDCFCE8C
:1009A600CCCE121BD274682FF58274223EF583E4F6
:1009B600934480F544AE28AF297C007D0A121BD2F1
:1009C60074682DF58274223CF583E493F54520B2D4
:1009D6003EE4F54DF54E30B30BC3E54E9402E54DBE
:1009E600940040F2E4F54DF54E20B30BC3E54E946A
:1009F60002E54D940040F2C3E5299458E528940297
:100A060050080529E529700205287F011222513078
:100A1600B303020C92E4F54DF54E30B20BC3E54E2E
:100A26009402E54D940040F2E4F54DF54E20B20BEC
:100A3600C3E54E9402E54D940040F2D3E529940AAD
:100A4600E52894004008E529152970021528020CAE
:100A56008D902276E493F542E4F543E525FB7A0092
:100A66007C277D10FF7E00121BD274682FF58274DE
:100A7600223EF583E493F5447C277D10AF037E0088
:100A8600121BD27E037FE8CFCDCFCECCCE121BD2A7
:100A960074682FF58274223EF583E493F54520B2FF
:100AA60034E4F54DF54E30B30BC3E54E9402E54DF7
:100AB600940040F2E4F54DF54E20B30BC3E54E9499
:100AC60002E54D940040F2E525C3945A50020525EF
:100AD6007F0112225130B303020C92E4F54DF54E1C
:100AE60030B20BC3E54E9402E54D940040F2E4F5B6
:100AF6004DF54E20B20BC3E54E9402E54D940040F1
:100B0600F2E525D3940140021525020C8D9022773B
:100B1600E4934480F542AE2BAF2C7C007D64121B1F
:100B2600D274682FF58274223EF583E493F543AEC2
:100B36002BAF2C7C007D64121BD27E007F0ACFCDAA
:100B4600CFCECCCE121BD274682FF58274223EF51E
:100B560083E493F544AE2BAF2C7C007D0A121BD2A6
:100B660074682DF58274223CF583E493F54520B232
:100B76003EE4F54DF54E30B30BC3E54E9402E54D1C
:100B8600940040F2E4F54DF54E20B30BC3E54E94C8
:100B960002E54D940040F2C3E52C94E7E52B94035F
:100BA6005008052CE52C7002052B7F0112225130CE
:100BB600B303020C92E4F54DF54E30B20BC3E54E8D
:100BC6009402E54D940040F2E4F54DF54E20B20B4B
:100BD600C3E54E9402E54D940040F2D3E52C940013
:100BE600E52B94004008E52C152C7002152B020C01
:100BF6008D902278E493F542E54B75F0648490225B
:100C06006893F543E54B75F06484E5F075F00A8466
:100C160093F544E54B75F00A84E5F093F54520B26B
:100C260034E4F54DF54E30B30BC3E54E9402E54D75
:100C3600940040F2E4F54DF54E20B30BC3E54E9417
:100C460002E54D940040F2E54BC394FA5002054B81
:100C56007F0112225120B334E4F54DF54E30B20B2C
:100C6600C3E54E9402E54D940040F2E4F54DF54E91
:100C760020B20BC3E54E9402E54D940040F2E54BDD
:100C8600D394004002154B7F0112225120B4277FD6
:100C96006412000620B41F7549FE20B40D2000051D
:100CA6007596FF80F5E4F59680F07F0A122251E4EE
:100CB600F54DF54E800F2000067596FF0206DCE422
:100CC600F5960206DCD3E54E9405E54D9400400505
:100CD600D2010203D02000067596FF020450E4F507
:100CE60096020450C3E54E9402E54D94004003027B
:100CF600180AC296E551147003020E2914700302F5
:100D06000F41147003021059240360030211737516
:100D16004964300003020D9EAE21AF227C037DE8BC
:100D2600121BD274682FF58274223EF583E493F584
:100D360042AE21AF227C037DE8121BD27E007F6487
:100D4600CFCDCFCECCCE121BD274682FF5827422B3
:100D56003EF583E493F543AE21AF227C007D641219
:100D66001BD27E007F0ACFCDCFCECCCE121BD27443
:100D7600682FF58274223EF583E493F544AE21AFE5
:100D8600227C007D0A121BD274682DF58274223CE7
:100D9600F583E493F5458003E4F54520B240E4F598
:100DA6004DF54E30B30BC3E54E9402E54D9400402D
:100DB600F2E4F54DF54E20B30BC3E54E9402E54D36
:100DC600940040F2C3E52294E8E521940350080517
:100DD60022E52270020521D2017F0112225130B391
:100DE60003021173E4F54DF54E30B20BC3E54E9494
:100DF60002E54D940040F2E4F54DF54E20B20BC3EA
:100E0600E54E9402E54D940040F2D3E5229400E5C8
:100E1600219400500302116CE5221522700215215F
:100E260002116C754964300003020EB2AE21AF2286
:100E36007C037DE8121BD274682FF58274223EF57E
:100E460083E493F542AE21AF227C037DE8121BD2E8
:100E56007E007F64CFCDCFCECCCE121BD274682F4E
:100E6600F58274223EF583E493F543AE21AF227CEE
:100E7600007D64121BD27E007F0ACFCDCFCECCCEB2
:100E8600121BD274682FF58274223EF583E493F523
:100E960044AE21AF227C007D0A121BD274682DF568
:100EA6008274223CF583E493F5458003E4F54420FF
:100EB600B243E4F54DF54E30B30BC3E54E9402E56F
:100EC6004D940040F2E4F54DF54E20B30BC3E54ECC
:100ED6009402E54D940040F2C3E52294DEE52194A8
:100EE60003500B740A2522F522E43521F521D2019F
:100EF6007F0112225130B303021173E4F54DF54E12
:100F060030B20BC3E54E9402E54D940040F2E4F591
:100F16004DF54E20B20BC3E54E9402E54D940040CC
:100F2600F2D3E522940AE5219400400C74F62522BA
:100F3600F52274FF3521F52102116C7549643000E4
:100F460003020FCAAE21AF227C037DE8121BD274C6
:100F5600682FF58274223EF583E493F542AE21AF05
:100F6600227C037DE8121BD27E007F64CFCDCFCEDC
:100F7600CCCE121BD274682FF58274223EF583E420
:100F860093F543AE21AF227C007D64121BD27E0016
:100F96007F0ACFCDCFCECCCE121BD274682FF5826E
:100FA60074223EF583E493F544AE21AF227C007DA6
:100FB6000A121BD274682DF58274223CF583E493E1
:100FC600F5458003E4F54320B243E4F54DF54E3094
:100FD600B30BC3E54E9402E54D940040F2E4F54DA3
:100FE600F54E20B30BC3E54E9402E54D940040F256
:100FF600C3E5229484E5219403500B74642522F5FD
:1010060022E43521F521D2017F0112225130B303AA
:10101600021173E4F54DF54E30B20BC3E54E940262
:10102600E54D940040F2E4F54DF54E20B20BC3E5D4
:101036004E9402E54D940040F2D3E5229464E521F6
:101046009400400C749C2522F52274FF3521F5216D
:1010560002116C7549643000030210E2AE21AF2222
:101066007C037DE8121BD274682FF58274223EF54C
:1010760083E493F542AE21AF227C037DE8121BD2B6
:101086007E007F64CFCDCFCECCCE121BD274682F1C
:10109600F58274223EF583E493F543AE21AF227CBC
:1010A600007D64121BD27E007F0ACFCDCFCECCCE80
:1010B600121BD274682FF58274223EF583E493F5F1
:1010C60044AE21AF227C007D0A121BD274682DF536
:1010D6008274223CF583E493F5458003E4F54220CF
:1010E600B244E4F54DF54E30B30BC3E54E9402E53C
:1010F6004D940040F2E4F54DF54E20B30BC3E54E9A
:101106009402E54D940040F2C3E5229401E5219452
:1011160000500C74E82522F52274033521F521D2FE
:10112600017F0112225120B344E4F54DF54E30B251
:101136000BC3E54E9402E54D940040F2E4F54DF5FF
:101146004E20B20BC3E54E9402E54D940040F2D317
:10115600E52294E7E5219403400C74182522F52234
:1011660074FC3521F521D2017F0112225120B41ED3
:101176007F01122251E4F54DF54E0551E551C39418
:10118600044003E4F55130B4FD7F01122251D3E54A
:101196004E9406E54D94005003020CF8E4F54DF527
:1011A6004E02180A30B403021816E54F64016003B4
:1011B600021816C296D202C2AAC2A8F54DF54E3042
:1011C600B40302134DE54E139296C3E54E9405E51E
:1011D6004D940040EAE4F5517549FEE54FB401052A
:1011E600E4F54F8003754F01121C35C374FF955506
:1011F600FF740F9554FE7C007D0A121BD2ED24303D
:10120600FF121DF17F42121DF1E54FB401047F313B
:1012160080027F30121DF1E54FB401047F30800259
:101226007F31121DF17F23121DF17F0A1222511206
:101236001C35C374FF9555FF740F9554FE7C007DD5
:101246000A121BD2ED2430FF121DF17F42121DF14E
:10125600E54FB401047F3180027F30121DF1E54F66
:10126600B401047F3080027F31121DF17F23121DED
:10127600F1E54F64016003021330C3E52294E8E50B
:10128600219403401BAE21AF227C037DE8121BD2C2
:1012960074682FF58274223EF583E493F542800349
:1012A600E4F542C3E5229464E52194004028AE218A
:1012B600AF227C037DE8121BD27E007F64CFCDCFA8
:1012C600CECCCE121BD274682FF58274223EF583E3
:1012D600E493F5438003E4F543C3E522940AE5214C
:1012E60094004028AE21AF227C007D64121BD27E82
:1012F600007F0ACFCDCFCECCCE121BD274682FF58D
:101306008274223EF583E493F5448003E4F544AE0B
:1013160021AF227C007D0A121BD274682DF58274DF
:10132600223CF583E493F5458012E4F54290226869
:1013360093F543902277E493F544F54530B4FD7F69
:101346000A1222510211C5C3E54E9402E54D9400DE
:10135600400302180AC296E55114700302148C1455
:1013660070030215A41470030216BC240360030262
:1013760017D6754964300003021401AE21AF227CF2
:10138600037DE8121BD274682FF58274223EF58322
:10139600E493F542AE21AF227C037DE8121BD27E98
:1013A600007F64CFCDCFCECCCE121BD274682FF582
:1013B6008274223EF583E493F543AE21AF227C008E
:1013C6007D64121BD27E007F0ACFCDCFCECCCE124B
:1013D6001BD274682FF58274223EF583E493F5449C
:1013E600AE21AF227C007D0A121BD274682DF582D5
:1013F60074223CF583E493F5458003E4F54520B279
:1014060040E4F54DF54E30B30BC3E54E9402E54D81
:10141600940040F2E4F54DF54E20B30BC3E54E942F
:1014260002E54D940040F2C3E52294E8E5219403D9
:1014360050080522E52270020521D2017F01122201
:101446005130B3030217D6E4F54DF54E30B20BC357
:10145600E54E9402E54D940040F2E4F54DF54E203C
:10146600B20BC3E54E9402E54D940040F2D3E5225B
:101476009400E521940050030217CFE5221522704F
:101486000215210217CF754964300003021515AE07
:1014960021AF227C037DE8121BD274682FF582747B
:1014A600223EF583E493F542AE21AF227C037DE82C
:1014B600121BD27E007F64CFCDCFCECCCE121BD2F4
:1014C60074682FF58274223EF583E493F543AE21CA
:1014D600AF227C007D64121BD27E007F0ACFCDCF67
:1014E600CECCCE121BD274682FF58274223EF583C1
:1014F600E493F544AE21AF227C007D0A121BD27420
:10150600682DF58274223CF583E493F5458003E467
:10151600F54420B243E4F54DF54E30B30BC3E54E2A
:101526009402E54D940040F2E4F54DF54E20B30BE0
:10153600C3E54E9402E54D940040F2C3E52294DEE5
:10154600E5219403500B740A2522F522E43521F592
:1015560021D2017F0112225130B3030217D6E4F5DE
:101566004DF54E30B20BC3E54E9402E54D94004066
:10157600F2E4F54DF54E20B20BC3E54E9402E54D6F
:10158600940040F2D3E522940AE5219400400C74BD
:10159600F62522F52274FF3521F5210217CF75496C
:1015A6006430000302162DAE21AF227C037DE812C3
:1015B6001BD274682FF58274223EF583E493F542BC
:1015C600AE21AF227C037DE8121BD27E007F64CF62
:1015D600CDCFCECCCE121BD274682FF58274223EAC
:1015E600F583E493F543AE21AF227C007D64121BA4
:1015F600D27E007F0ACFCDCFCECCCE121BD274685E
:101606002FF58274223EF583E493F544AE21AF2292
:101616007C007D0A121BD274682DF58274223CF57B
:1016260083E493F5458003E4F54320B243E4F54DA6
:10163600F54E30B30BC3E54E9402E54D940040F2EF
:10164600E4F54DF54E20B30BC3E54E9402E54D94FB
:101656000040F2C3E5229484E5219403500B7464A0
:101666002522F522E43521F521D2017F01122251EE
:1016760030B3030217D6E4F54DF54E30B20BC3E591
:101686004E9402E54D940040F2E4F54DF54E20B23D
:101696000BC3E54E9402E54D940040F2D3E5229447
:1016A60064E5219400400C749C2522F52274FF35D4
:1016B60021F5210217CF754964300003021745AEA4
:1016C60021AF227C037DE8121BD274682FF5827449
:1016D600223EF583E493F542AE21AF227C037DE8FA
:1016E600121BD27E007F64CFCDCFCECCCE121BD2C2
:1016F60074682FF58274223EF583E493F543AE2198
:10170600AF227C007D64121BD27E007F0ACFCDCF34
:10171600CECCCE121BD274682FF58274223EF5838E
:10172600E493F544AE21AF227C007D0A121BD274ED
:10173600682DF58274223CF583E493F5458003E435
:10174600F54220B244E4F54DF54E30B30BC3E54EF9
:101756009402E54D940040F2E4F54DF54E20B30BAE
:10176600C3E54E9402E54D940040F2C3E522940190
:10177600E5219400500C74E82522F52274033521E6
:10178600F521D2017F0112225120B344E4F54DF533
:101796004E30B20BC3E54E9402E54D940040F2E4A0
:1017A600F54DF54E20B20BC3E54E9402E54D94007F
:1017B60040F2D3E52294E7E5219403400C74182502
:1017C60022F52274FC3521F521D2017F0112225126
:1017D60020B41E7F01122251E4F54DF54E0551E568
:1017E60051C394044003E4F55130B4FD7F01122245
:1017F60051D3E54E9406E54D9400500302135BE485
:10180600F54DF54E122071D2017596FFD2968018CD
:1018160020B415C296D202C2AAC2A8E4F54DF54E6E
:10182600754F01D20130B4FDD3E54E9403E54D94D6
:1018360000500302007E20020302007EC202122034
:041846007102007EAD
:030003000220D800
:1020D800C0E0C0D0C2A8C2AAD20120B23B754D0050
:1020E800754E0030B30BC3E54E9402E54D940040A5
:1020F800F2754D00754E0020B30BC3E54E9402E512
:102108004D940040F2C3E52294E8E5219403500879
:102118000522E52270020521D2AAD2A8D0D0D0E0AB
:012128003284
:030013000221299E
:10212900C0E0C0D0C2A8C2AAD20120B33B754D00FD
:10213900754E0030B20BC3E54E9402E54D94004054
:10214900F2754D00754E0020B20BC3E54E9402E5C1
:102159004D940040F2D3E5229400E5219400400813
:10216900E522152270021521D2A8D2AAD0D0D0E03A
:012179003233
:03000B00021FEBE6
:101FEB00C0E0C0D005560548E548D3954940057576
:101FFB004800B2000547E54770020546C394F4E577
:10200B00469401400E754600754700054EE54E702F
:10201B0002054DD283D282D281D28075A000E556C3
:10202B00B4010BC280D281D282D2838542A0E55605
:10203B00B4020BD280C281D282D2838543A0E556F3
:10204B00B4030BD280D281C282D2838544A0E556E1
:10205B00B4040E755600D280D281D282C2838545DC
:06206B00A0D0D0D0E0324D
:030023000222B105
:0622B100309802C29832D1
:03004300021DF9A2
:101DF900C0E0C0F0C0D075D000C000C002C003C0B0
:101E090004C005C006C007E59A30E105539AFDC232
:101E190003E59A20E003021EAF539AFEE599B44107
:101E290003755000742E2550F8A6990550E550C346
:101E390094064072E52E6441706CE5336423706644
:101E4900752301D201E53024D0FFE434FFFE7C0084
:101E59007D64121BC0AA06AB07E52F24D0FFE4342A
:101E6900FFFE7C037DE8121BC0EF2BFBEE3AFAE57F
:101E79003124D0FFE434FFFE7C007D0A121BC0EF41
:101E89002BFFEE3AFEE53224D0FDEC34FFCD2FF5E1
:101E990022ED3EF521D3E52294E8E521940340069D
:101EA9007521037522E8D007D006D005D004D003E8
:0B1EB900D002D000D0D0D0F0D0E0323A
:03000600DFFE22F8
:10225100AE071FEE601000007E027D077C9FDCFE52
:06226100DDFCDEFA80EA5C
:012267002254
:10184A00021B92E86480F8E933E83360110460F01F
:10185A00ED33EC337009E8FCE9FDEAFEEBFF220404
:10186A0060DED3EB9FEA9EE99DE8C2E78CF0C2F7FF
:10187A0095F0400CE8CCF8E9CDF9EACEFAEBCFFBCB
:10188A00121B5D85D0F05804700320D5B3E80470AC
:10189A00075002B2D5021B9C92D5EC0460F7E4CC47
:1018AA00C0E0C398F8603B94186008400DD0E0FB94
:1018BA00021B74E4FBFAC9FC8028E830E406E4C998
:1018CA00FBE4CAFCE830E305E4C9CACBFCE85407E8
:1018DA006010F8C3E913F9EA13FAEB13FBEC13FCF3
:1018EA00D8F130F52FC3E49CFCEF9BFFEE9AFEED96
:1018FA0099FDD0E0FBEF4E4D4C701222DB03021B28
:10190A0099EC2CFCEF33FFEE33FEED33FDED30E7BF
:10191A00EB021B74EF2BFFEE3AFEED39FDD0E0FB34
:10192A0050130BBB0003021B9CED13FDEE13FEEFDD
:08193A0013FFEC13FC021B7407
:10194200EC4D6011E8497017ED33EC3304600DE49F
:10195200FCFFFEFD22E933E8330470F8021B921209
:101962001B5D58046009E4CC24815006285009020A
:101972001B9C284003021B99C0E0EB4A7044B980CB
:1019820006D0E0FB021B88EF4E701CBD8008EBFF07
:10199200EAFEE9FD80EBE98DF0A4FEE5F0021A2BE8
:1019A200E9CDF9EAFEEBFFEF89F0A4FCE5F0CE8980
:1019B200F0A42EFFE435F0CD89F0A42DFEE435F03D
:1019C2008067EF4E7005BD80D780C3EF8BF0A4AC6B
:1019D200F0EE8BF0A42CFCE435F0F8EF8AF0A42CA6
:1019E200E5F038FCE433CB8DF0A42CFCE5F03BF8B9
:1019F200EE8AF0A42CFCE5F038F8E433CF89F0A4A9
:101A02002CFCE5F038CF3400CE89F0A42FFFE5F0AE
:101A12003EFEE433C98DF0A42EFEE5F039CD8AF006
:101A2200A42FFFE5F03EFEE43DFD33D0E0FB50077E
:101A32000BBB000F021B9CEC2CFCEF33FFEE33FEC2
:061A4200ED33FD021B74F0
:101A4800021B9CEC5D046005E859047003021B92BC
:101A5800121B5D580460F6EC4860F2EC7004FDFE61
:101A6800FF22C860DB2481C85009C3986002500671
:101A7800021B999850CAF582E9294B4A7005AB8236
:101A8800021B8875F0007C1A7880C3EF9BEE9AEDF4
:101A980099400DC3EF9BFFEE9AFEED99FDE842F0E9
:101AA800DC23ACF0D0E0FFD0E0FED0E0FDAB82203C
:101AB800E7101BEB60BAEC2CFCEF33FFEE33FEEDC6
:101AC80033FD021B74E803F830E705C0F075F00039
:101AD800EF2FFFEE33FEED33FD40B830E7C280AAAA
:101AE80075F020800E75F010800575F0087D007E79
:101AF800007F003392D530D503121C27EC334010F9
:101B0800EF33FFEE33FEED33FDEC33FCD5F0ED2281
:0E1B1800E5F0247EA2D513CC92E7CDCEFF22BD
:101B2600EDD2E7CD33EC3392D524814006E4FFFEB7
:101B3600FDFC22FCE4CFCECDCC24E0501174FF8016
:101B4600EDC3CC13CCCD13CDCE13CECF13CF0470B3
:071B5600F030D5DE021C2770
:101B5D00E9D2E7C933E833F892D5EDD2E7CD33ECCE
:071B6D0033FC5002B2D52247
:101B7400EC30E7100FBF000C0EBE00080DBD0004D2
:101B84000BEB6014A2D5EB13FCED92E7FD2274FF7E
:101B9400FCFDFEFF22E480F8A2D574FF13FC7D80D7
:031BA400E480EFEB
:101F6B00020046E493A3F8E493A34003F68001F246
:101F7B0008DFF48029E493A3F85407240CC8C33377
:101F8B00C4540F4420C8834004F456800146F6DF46
:101F9B00E4800B01020408102040809022A1E47E13
:101FAB00019360BCA3FF543F30E509541FFEE4933B
:101FBB00A360010ECF54C025E060A840B8E493A302
:101FCB00FAE493A3F8E493A3C8C582C8CAC583CA2D
:101FDB00F0A3C8C582C8CAC583CADFE9DEE780BEE5
:0122B000002D
:101BA700BB010689828A83E0225002E722BBFE023C
:091BB700E32289828A83E493226F
:101BC000EF8DF0A4A8F0CF8CF0A428CE8DF0A42E39
:021BD000FE22F3
:101BD200BC000BBE0029EF8DF084FFADF022E4CCF7
:101BE200F875F008EF2FFFEE33FEEC33FCEE9DECC0
:101BF200984005FCEE9DFE0FD5F0E9E4CEFD22ED06
:101C0200F8F5F0EE8420D21CFEADF075F008EF2F4F
:101C1200FFED33FD4007985006D5F0F222C398FD40
:051C22000FD5F0EA22DD
:0E1C2700C3E49FFFE49EFEE49DFDE49CFC22CE
:00000001FF
